:2000000032FFA0FFF9FFA8FF75B00000330075370075FE758800758DC0753612388089122B
:20002000750F98123A7401753C7402E51595E5F595802574F574027585647412293DE2E22C
:20004000E2E2E2E2E2E2E2E2E2E2E2E2E2E2E2E2E2E2E2E2E2E2E2E2E2E2E2E2E2E2E2E260
:20006000E2E2E2E2E2E2E2E2E2E2E2E2E2E2E2E2E2E2E2E2E2E2E2E2E2E2E2E2E2E20C7583
:20008000398078397489754802121AD575751575760F78767498754802121AD5753A10784F
:2000A0003A748F754801121AD5753B00753C00783C7494754802121AD5E53730E715C374E8
:2000C000759536F53DE537B2E7F53E7408953EF53E800C74752536F53D74083537F53E78AF
:2000E0003E7495754802121AD5758000D28574E3F564121B877401F564121B877429F564D1
:20010000121B87756403121B87E47800121C08121D83121D8308B81EF37800121C19756937
:2001200001756A01756B01757F01C28FD2ABD28EC28DD2A9D28CC289D2A8D2AF121D83C2F8
:200140008BD2AA121D83121D83121D83121D83121D83121D83121D83121D83757200784F5A
:20016000757306121CEF7572067833757305121CEF75720B786D757303121CEFE54FB455B6
:2001800007E56FB455078016121D2A80F4121D47121D8C757200784F757304121CEFC37472
:2001A0003F955074429551740F9552500B7552007551007550008014AA53AB54AC50AD51DE
:2001C000AE525158885589568A578B58E55C7009E55B70057563008026AB5AAA597E007D06
:2001E000007C645158EBFCEAFBE9FAE8F9AE5CAD5BB138EB946450048B6380037563647592
:200200008701809A78787903E4F608D9FC791878757A03C3E633F608DAFA7A037878E636E7
:20022000D4F608DAF9D9E82278797904E4F608D9FC757900757A00757B00757A0079207844
:20024000757A04C3E633F608DAFA7A047879E636D4F608DAF9D9E822EA8CF0A4A9F0F8EA65
:200260008DF0A429F9E435F0FFEA8EF0A42FFAE435F0FFEB8CF0A429F9EA35F0FAEB8DF058
:20028000A42AFAEF35F0FFEB8EF0A42FFB22C0E0C0D0C000C001C002C003C004C005C006A5
:2002A000C007C289C2A8054B7403784E754803121B32C3E530254CF530E531354DF531E505
:2002C0004C2567F567E54D3568F568C37470953074FD95315038C3E5502401F550E55134C7
:2002E00000F551E5523400F552753100753000C3740FB55219C37442B55113C37440B55047
:200300000D755200755100755000800261AAE54BB432F9E56E30E711C37456956DFAE56E8B
:20032000B2E7FB74149BFB800A7456256DFA7414356EFB7E00AD68AC677568007567005155
:2003400058EBFCEAFBE9FAE8F97E277D10B13889598A5A7406784E754803121B32E56E30F2
:20036000E711C37400956DFAE56EB2E7FB74189BFB800A7400256DFA7418356EFBAE4EADEC
:200380004DAC4C5158EBFCEAFBE9FAE8F97E277D10B138895B8A5CC3E559955BE55A955CD9
:2003A0004008E559F55BE55AF55C7416784E754803121B3291D0C3E53F254CF53FE5403521
:2003C0004DF540E43541F541E54BB4322EC3AB41AA40A93F7F32B15F8A60895F753F00758A
:2003E0004000754100E55AB40011E559B4000C755F00756000755B00755C007417784E75F5
:200400004803121B32918BC3E542254CF542E543354DF543E43544F544E54BB43218C3AB70
:2004200044AA43A9427F32B15F8A5E895D7542007543007544007427784D754802121B326B
:20044000B10BC3E545254CF545E546354DF546E43547F547E54BB4321B754B00C3AB47AA74
:2004600046A9457F32B15F8A628961754700754600754500D2A8D007D006D005D004D003DD
:20048000D002D001D000D0D0D0E032AE4EAD4DAC4CE53430E711C374C89533FAE534B2E7C5
:2004A000FB74079BFB800A74C82533FA74073534FB5158EBFCEAFBE9FAE8F97EC37D50B141
:2004C00038ECFAEBF97B007F02B15F894C8A4D22AE4EAD4DAC4CE53530E70AB2E7FA743CD4
:2004E000C39AFA8005743C2535FA7B005158EBFCEAFBE9FAE8F97E0B7DB8B138ECFAEBF9F7
:200500007B007F0AB15F8A4D894C227E00AD4DAC4C7B007ADF5158EBFCEAFBE9FAE8F97EFE
:20052000007D64B138ECFEEBFD7C057BF47A5A7990B1388C4D8B4C2275F010C3E933F9EA60
:2005400033FAEB33FBCC33CC92D5C39DF8EC9EB0D54004FCE8FB09D5F0E1EAFCE9FB227C82
:2005600010C3E933F9EA33FAEB33FB92D5C39FB0D54002FB09DCEAEB2B40039F400509E9DA
:2005800070010AC2D222C0E0C0D0C000C001C002C003C004C005C006C007C28DC28CC2A9D6
:2005A000E57420E00520E1058006020DAA021093E569B401028031B40202C1FAB40302E130
:2005C000B8B404030208BEB405030209AFB40603020A9CB40703020B77B40803020C34B40E
:2005E0000903020CFA0214818555758556768557778558785128857A79857B7A857C7BE53C
:2006000079540F901C2A93F565F575753202121BBFE575C4F565753203121BBFE57954F08C
:20062000C493F565F575753204121BBFE575C4F565753205121BBFE57A540F93F565F575DF
:20064000753206121BBFE575C4F565753207121BBFE57A54F0C4F575E57420E00EE575B4A9
:200660000009E57BB4000474008003E57593F565F575753208121BBFE575C4F565753209EE
:20068000121BBFE57B540FF575E57420E00EE575B40009E57BB4000474008003E57593F5D2
:2006A00065F57575320A121BBFE575C4F56575320B121BBFE57B54F0C4F575E57420E00984
:2006C000E575B4000474008003E57593F565F57575320C121BBFE575C4F56575320D121B68
:2006E000BF741393F565753201121BBF740A93F565753200121BBF02148185537585547602
:200700007577005104E578540F901C2A93F565F575753202121BBFE575C4F56575320312E2
:200720001BBFE57854F0C493F565F575753204121BBFE575C4F565753205121BBFE57954CA
:200740000F93F565F575753206121BBFE575C4F565753207121BBFE57954F0C4F575E5745F
:2007600020E009E575B4000474008003E57593F565F575753208121BBFE575C4F5657532FC
:2007800009121BBF75650075320A121BBF75320B121BBF75320C121BBF75320D121BBF749C
:2007A0001393F565753201121BBF740B93F565753200121BBF0214818550758551768552A2
:2007C000775104E578540F901C2A93F565F575753202121BBFE575C4F565753203121BBFBD
:2007E000E57854F0C493F565F575753204121BBFE575C4F565753205121BBFE579540F9342
:20080000F565F575753206121BBFE575C4F565753207121BBFE57954F0C4F575E57420E040
:200820000EE575B40009E57AB4000474008003E57593F565F575753208121BBFE575C4F526
:2008400065753209121BBFE57A540FF575E57420E00EE575B40009E57AB4000474008003DF
:20086000E57593F565F57575320A121BBFE575C4F56575320B121BBFE57A54F0C4F575E55E
:200880007420E009E575B4000474008003E57593F565F57575320C121BBFE575C4F5657595
:2008A000320D121BBF741393F565753201121BBF741293F565753200121BBF02148185598A
:2008C00075855A76757700120204E578540F901C2A93F565F575753202121BBFE575C4F5B5
:2008E00065753203121BBFE57854F0C4F575B40009E579B4000474008003E57593F565F528
:2009000075753204121BBFE575C4F565753205121BBFE579540FF575B40009E579B40004BD
:2009200074008003E57593F565F575753206121BBFE575C4F565753207121BBFE57954F0C2
:20094000C4B400047400800193F565F575753208121BBFE575C4F565753209121BBF756546
:200960000075320A121BBF75320B121BBF75320C121BBF75320D121BBFE57954F070047473
:200980000E8011C4B4010474158009B4020474178002741693F565753208121BBF75650076
:2009A000753200121BBF753201121BBF021481855B75855C76757700120204E578540F9079
:2009C0001C2A93F565F575753202121BBFE575C4F565753203121BBFE57854F0C4F575B454
:2009E0000009E579B4000474008003E57593F565F575753204121BBFE575C4F56575320575
:200A0000121BBFE579540FF575B40009E579B4000474008003E57593F565F5757532061285
:200A20001BBFE575C4F565753207121BBFE57954F0C4B400047400800193F565F5757532B9
:200A400008121BBFE575C4F565753209121BBF75650075320A121BBF75320B121BBF7532D2
:200A60000C121BBF75320D121BBF741093F565C3E55B940AE55C9400400AE57854F0C493B5
:200A80004565F565753204121BBF756500753200121BBF753201121BBF021481855D758547
:200AA0005E76757700120204E578540F901C2A93F565F575753202121BBFE575C4F56575EF
:200AC0003203121BBFE57854F0C493F565F575753204121BBFE575C4F565753205121BBF92
:200AE000E579540F93F565F575753206121BBFE575C4F565753207121BBFE57954F0C4F5D8
:200B000075B40009E57AB4000474008003E57593F565F575753208121BBFE575C4F565755C
:200B20003209121BBFE57A540FB400047400800193F565F57575320A121BBFE575C4F565B3
:200B400075320B121BBF75650075320C121BBF75320D121BBF741393F565753201121BBFD6
:200B6000740C93F56575320C121BBF756500753200121BBF021481855F75856076757700C5
:200B8000120204E578540F901C2A93F565F575753202121BBFE575C4F565753203121BBFAD
:200BA000E57854F0C493F565F575753204121BBFE575C4F565753205121BBFE579540F937E
:200BC000F565F575753206121BBFE575C4F565753207121BBFE57954F0C4B4000474008094
:200BE0000193F565F575753208121BBFE575C4F565753209121BBF75650075320A121BBF77
:200C000075320B121BBF75320C121BBF75320D121BBF741393F565753201121BBF740D93DB
:200C2000F56575320A121BBF756500753200121BBF021481856175856276757700120204FD
:200C4000E578540F901C2A93F565F575753202121BBFE575C4F565753203121BBFE5785453
:200C6000F0C493F565F575753204121BBFE575C4F565753205121BBFE579540F93F565F51F
:200C800075753206121BBFE575C4F565753207121BBFE57954F0C4B400047400800193F599
:200CA00065F575753208121BBFE575C4F565753209121BBF75650075320A121BBF75320B8D
:200CC000121BBF75320C121BBF75320D121BBF741393F565753201121BBF740F93F565E58C
:200CE00079540F934565F565753206121BBF756500753200121BBF0214818563757576009C
:200D0000757700120204E578540F901C2A93F565F575753202121BBFE575C4F5657532032B
:200D2000121BBFE57854F0C493F565F575753204121BBFE575C4F565753205121BBFE57906
:200D4000540F93F565F575753206121BBFE575C4F565753207121BBF756500753208121B78
:200D6000BF753209121BBF75320A121BBF75320B121BBF75320C121BBF75320D121BBF742A
:200D80001393F565753201121BBF741193F565E578540F934565F565753202121BBF756587
:200DA00000753200121BBF021481E56C04F56CE56AB401028002E17EE56BB4012AE56CB438
:200DC0000A028007E57420E4128017E56CE4F56CE57420E4098000D2E4F5740206FAC2E437
:200DE000F574740002070DE56BB40228E56CB40A028007E57420E4108015E4F56CE574207A
:200E0000E4028007C2E4F5740206FAD2E4F5747400020728E56BB40328E56CB40A028007C9
:200E2000E57420E4108015E4F56CE57420E4D580DAC2E4F5740206FAD2E4F5747400020732
:200E400042E56CB40A028007E57420E4108015E4F56CE57420E4028007C2E4F5740206FA7A
:200E6000D2E4F574740002076FE56BB4012AE56CB40A028007E57420E4128017E56CE4F570
:200E80006CE57420E4098000D2E4F5740205E8C2E4F5747400020607E56BB4022AE56CB42B
:200EA0000A028007E57420E4128017E56CE4F56CE57420E4098000D2E4F5740205E8C2E469
:200EC000F5747400020622E56BB4032AE56CB40A028007E57420E4128017E56CE4F56CE5C1
:200EE0007420E4098000D2E4F5740205E8C2E4F574740002063CE56BB4042AE56CB40A02D9
:200F00008007E57420E4128017E56CE4F56CE57420E4098000D2E4F5740205E8C2E4F574AB
:200F2000740002066EE56BB4052AE56CB40A028007E57420E4128017E56CE4F56CE57420E7
:200F4000E4098000D2E4F5740205E8C2E4F574740002069FE56CB40A028007E57420E412E5
:200F60008017E56CE4F56CE57420E4098000D2E4F5740205E8C2E4F57474000206CCE56BA9
:200F8000B4012AE56CB40A028007E57420E4128017E56CE4F56CE57420E4098000D2E4F5AD
:200FA000740207B8C2E4F57474000207CBE56BB4022AE56CB40A028007E57420E4128017D7
:200FC000E56CE4F56CE57420E4098000D2E4F5740207B8C2E4F57474000207E6E56BB4033C
:200FE0002AE56CB40A028007E57420E4128017E56CE4F56CE57420E4098000D2E4F574028C
:2010000007B8C2E4F5747400020800E56BB4042AE56CB40A028007E57420E4128017E56C63
:20102000E4F56CE57420E4098000D2E4F5740207B8C2E4F5747400020832E56BB4052AE5CE
:201040006CB40A028007E57420E4128017E56CE4F56CE57420E4098000D2E4F5740207B87B
:20106000C2E4F5747400020863E56CB40A028007E57420E4128017E56CE4F56CE57420E4EF
:20108000098000D2E4F5740207B8C2E4F5747400020890E56C04F56CE57FB40102800CB4B9
:2010A000020221A2B4030241766172E53430E702C2E7853375F576757700120204E57854FE
:2010C0000F901C2A93F565F575753202121BBFE575C4F565753203121BBFE57854F0C4F5D7
:2010E00075B40009E579B4000474008003E57593F565F575753204121BBFE575C4F565757C
:201100003205121BBFE579540FF575B40009E579B4000474008003E57593F565F57575325F
:2011200006121BBFE575C4F565753207121BBF756500753208121BBF753209121BBF7532F3
:201140000A121BBF75320B121BBF75320C121BBF75320D121BBFE56CB40A09756C00E5746A
:20116000B2E4F574E57430E40B740C93F56575320C121BBFE53430E718741893F565F575C1
:20118000753208121BBFE575C4F565753209121BBF756500753200121BBF753201121BBF9F
:2011A0008181E53530E702C2E7F575757600757700120204E578540F901C2A93F565F5750B
:2011C000753202121BBFE575C4F565753203121BBFE57854F0C4F575B4000474008003E509
:2011E0007593F565F575753204121BBFE575C4F565753205121BBF756500753206121BBF09
:20120000753207121BBF753208121BBF753209121BBF75320A121BBF75320B121BBF75321B
:201220000C121BBF75320D121BBFE56CB40A09756C00E574B2E4F574E57430E40B740D9339
:20124000F56575320A121BBFE53530E718741893F565F575753206121BBFE575C4F56575E5
:201260003207121BBF756500753200121BBF753201121BBF8181E53730E702C2E785367538
:20128000F576757700120204E578540F901C2A93F565F575753202121BBFE575C4F5657570
:2012A0003203121BBFE57854F0C4F575B40009E579B4000474008003E57593F565F575754E
:2012C0003204121BBFE575C4F565753205121BBFE579540FF575B40009E579B4000474006A
:2012E0008003E57593F565F575753206121BBFE575C4F565753207121BBF75650075320886
:20130000121BBF753209121BBF75320A121BBF75320B121BBF75320C121BBF75320D121B8A
:20132000BFE56CB40A09756C00E574B2E4F574E57430E40D741293F565753200121BBF809D
:2013400009756500753200121BBFE53730E718741893F565F575753208121BBFE575C4F53B
:2013600065753209121BBF756500753201121BBF8181E56E30E702C2E7856D75F576757729
:2013800000120204E578540F901C2A93F565F575753202121BBFE575C4F565753203121B64
:2013A000BFE57854F0C4F575B40009E579B4000474008003E57593F565F575753204121B4C
:2013C000BFE575C4F565753205121BBFE579540FF575B40009E579B4000474008003E575EF
:2013E00093F565F575753206121BBFE575C4F565753207121BBFE57954F0C4B40004740059
:20140000800193F565F575753208121BBFE575C4F565753209121BBF75650075320A121B8D
:20142000BF75320B121BBF75320C121BBF75320D121BBFE56CB40A09756C00E574B2E4F533
:2014400074E57430E40D740E93F565753208121BBF8000E56E30E718741893F565F575753A
:20146000320A121BBFE575C4F56575320B121BBF756500753200121BBF753201121BBF80AD
:2014800000758C63758AC0D2A9D28CD007D006D005D004D003D002D001D000D0D0D0E03232
:2014A000C0E0C0D0C000C001C002C003C004C005C006C007C28BC2AA78507572017573038C
:2014C000121D0FD2AAD007D006D005D004D003D002D001D000D0D0D0E032758D63758BC00F
:2014E000D2ABD28ED007D006D005D004D003D002D001D000D0D0D0E032C0E0C0D0C000C041
:2015000001C002C003C004C005C006C007C28FC28EC2ABE57420E12A20E019209316121D8C
:20152000832093103093FD057DE57DB40506757D0002185C20900E121D832090083090FDB5
:20154000802F02185C20910B121D832091053091FD804220920B121D832092053092FD805D
:201560005920930B121D832093053093FD807181DAE57420E002800FC2E0F574785075723A
:2015800001757305121D0FE569B4090575690181DA056981DAE57420E00CD2E0F574756AAD
:2015A00001756B0181DA056AE56AB40308756A01756B0181DA756B0181DAE57430E002802E
:2015C0000281DAE56AB4010C056BE56BB40503756B0181DA056BE56BB407F7756B0181DA38
:2015E000E57430E01EE56BB401028019B40202807FB40302C1E7B40402E159B40502E1CF4D
:2016000002181481DAE56AB4012D855375855476757700120204E578540FB4090FE553C3E9
:201620009409F553E5549400F55481DAC30553E5543400F55481DA85507585517685527744
:20164000120204E578540FB40915E550C39409F550E5519400F551E5529400F55281DAC3C6
:201660000550E5513400F551E5523400F55281DAE56AB40133855375855476757700120285
:2016800004C3E57854F0C4B4090FE553C3945AF553E5549400F55481DAC3E553240AF5533F
:2016A000E5543400F55481DA855075855176855277120204C3E57854F0C4B40915E550C32B
:2016C000945AF550E5519400F551E5529400F55281DAE550C3240AF550E5513400F551E55A
:2016E000523400F55281DAE56AB40130855375855476757700120204E579540FB4090FC39E
:20170000E5539484F553E5549403F55481DAE553C32464F553E43554F55481DA8550758512
:201720005176855277120204E579540FB40915C3E5509484F550E5519403F551E5529400B6
:20174000F55281DAE550C32464F550E5513400F551E5523400F55281DAE56AB40132855357
:2017600075855476757700120204E57954F0C4B4090FC3E5539428F553E5549423F55481B6
:20178000DAE553C324E8F553E5543403F55481DA855075855176855277120204C3E579549B
:2017A000F0C4B40915E550C39428F550E5519423F551E5529400F55281DAE550C324E8F511
:2017C00050E5513403F551E5523400F55281DAE56AB4010281DA85507585517685527712A2
:2017E0000204E57A540FB40915C3E5509490F550E551945FF551E5529401F55281DAE550DC
:20180000C32410F550E5513427F551E5523400F5520214DAE56AB401030214DA855075854D
:201820005176855277120204E57A54F0C4B40916C3E55094A0F550E55194BBF551E552943A
:201840000DF5520214DAE550C324A0F550E5513486F551E5523401F5520214DAE57420E110
:201860000AD2E1F574757F010214DA20905BB1832090563090FDE574C2E1F574757F01C23F
:20188000AF7833757206757305B10F75720B786D757302B10FD2AFE53730E715C3747595C9
:2018A00036F53DE537B2E7F53E7408953EF53E800C74752536F53D74083537F53E783E740F
:2018C0009575480251D50214DA209118B1832091133091FDE57FB40406757F010214DA0513
:2018E0007F0214DA20931FB18320931A3093FDE57FB40142E53420E71DE533B4900AE534CF
:20190000B401050214DA21DAE5332405F533E43534F5340214DAC3E5339405F533E534940A
:2019200000F534C2E7B4000BE533B40006E534C2E7F5340214DAB4021EE53520E70BB4288D
:20194000030214DA05350214DA1535E535C2E7B400E1F5350214DAB40340E53720E71BE594
:2019600036B4DE08E537B403030214DAE5362405F536E43537F5370214DAC3E5369405F58A
:2019800036E5379400F537C2E7B400A7E536B400A2E537C2E7F5370214DAE56E20E71BE585
:2019A0006DB4D008E56EB407030214DAE56D2428F56DE4356EF56E0214DAC3E56D9428F58D
:2019C0006DE56E9400F56EC2E7B4000BE56DB40006E56EC2E7F56E0214DA2092FAB183208D
:2019E00092F53092FDE57FB40141E53420E720E533B4000BE534B40006D2E7F5348010C328
:201A0000E5339405F533E5349400F5340214DAE533B49008E534B481030214DAE533240541
:201A2000F533E5343400F5340214DAB40222E53520E710B40008E535D2E7F5358005153587
:201A40000214DAE535B4A8030214DA05350214DAB40341E53720E720E536B4000BE537B41E
:201A60000006D2E7F5378010C3E5369405F536E5379400F5370214DAE536B4DE08E537B4F8
:201A800083030214DAE5362405F536E5373400F5370214DAE56E20E720E56DB4000BE56E17
:201AA000B40006D2E7F56E8010C3E56D9428F56DE56E9400F56E0214DAE56DB4D008E56E22
:201AC000B487030214DAE56D2428F56DE56E3400F56E0214DAD28200000000C2837549089F
:201AE00000000000339280C28200000000D282D549EE0000000000000000000000000000FD
:201B0000E67549080000000000339280C282000000000000D282D549EB0000000000000033
:201B20000000000000000018E6754908D548D5D28322D28200000000C28375490800000019
:201B400000339280C282D54902800800000000D28280EA0000000000754908D282A2813326
:201B60000000C28200000000000000D549ED00000000000000000000000000F6E418754966
:201B800008D548D7D28322C285C287D287C286B174D28600C287C286B174D28600C286B11D
:201BA00074D286756608E564C3339287C286B174D286D566F4C286B174D28600D28522C22A
:201BC00085D287C286B174D286C287C286B174D286D287C286B174D286756606E532C287F5
:201BE00030E502D287C286B174D28623D566EF756604E565C28730E002D287C286B174D247
:201C00008603D566EFD28522753200754A0E75650F71BF0532D54AF622753200754A0E75B4
:201C2000650071BF0532D54AF622D706B5A766E3F386F7E702010808080808080802010E7C
:201C40000F0D20D294D295000000000000C294000000000000C29522D29400000000000046
:201C6000C294000000000000D295000000000000D2940000000000C29522E57430E704D282
:201C8000948002C294D295000000000000C29522E574D2E6F574D295000000000000209463
:201CA00006E574C2E6F574C29522757E08E574C2E7F574E57030E706E574D2E7F574917ADD
:201CC000E57023F570D57EE5919022757100757E08E57123F5719190E57430E606E571D22E
:201CE000E0F571D57EEBE574D2E7F574917A2291437570A091AA85727091AA91437570A128
:201D000091AA91CBA6719158057208D573E12291437570A091AA85727091AA867091AA916A
:201D200058B17A057208D573E622754F5575500075510075520075533275540075720078C4
:201D40004F757306B10F22753300753400753500753600753700756D00756E00756F55759F
:201D600072067833757305B10F75720B786D757303B10F220000000000227A0A7B64DBFE91
:1A1D8000DAFA227A0A7BFADBFEDAFA227AC87B0A7CFADCFEDBFADAF622FFAE
:00000001FF
